:100999001209B31209E31209F812001E12097E1294
:0A09A90005E61208FB120A2380F293
:1007DA00082F0000000000000000083B0000000095
:1007EA000000000002390000084400000000000078
:0B07FA0000000138000137000143003F
:1008FB00E4F543AD437F03120294EF6011AF4374F1
:10090B0001A807088002C333D8FC42378010AF43DD
:10091B007401A807088002C333D8FCF4523705438F
:08092B00E543C3940640CC2211
:10097E00E4F543AD437F02120294742F2543F8A68B
:0B098E00070543E543C3940840E9223D
:1005E600E4F52DF52EF5431202908F2D7F027E0045
:1005F600120A181202908F2EE52D652E7049E538E5
:10060600702A743B2543F8E6652E6014742F254343
:10061600F8E6600CAF43120A0C7F147E00120A182B
:10062600120290743B2543F8A607801B743B2543B2
:10063600F8E6652D601174442543F8E670097601E5
:10064600743B2543F8A62E0543E543C3940840971B
:010656002281
:10017500E530B401047F0180027F00EF333333544F
:10018500F8FFE52FB401047E0180027E00EE25E034
:100195004FFFE531B401047E0180027E00EEC433D9
:1001A50054E04FFFE532B401047E0180027E00EE8B
:1001B500C433333354804F4239E534B401047F01ED
:1001C50080027F00EF33333354F8FFE533B4010485
:1001D5007E0180027E00EE25E04FFFE535B4010487
:1001E5007E0180027E00EEC43354E04FFFE536B455
:1001F50001047E0180027E00EEC433333354804F08
:10020500423AE53CB401047F0180027F00EF25E01E
:1002150025E0FFE53BB401047E0180027E00EF4E40
:10022500FFE53DB401047E0180027E00EEC454F07A
:100235004FFFE53EB401047E0180027E00EEC4332B
:100245003354C04F4239E540B401047F0180027F39
:1002550000EF25E025E0FFE53FB401047E018002C3
:100265007E00EF4EFFE541B401047E0180027E0071
:10027500EEC454F04FFFE542B401047E0180027ED6
:0B02850000EEC4333354C04F423A2255
:04029000AD437F01FA
:10029400E4FEEF24FE606414700302034D24026044
:1002A4000302037CED0414B40800400302037C90B1
:1002B40002C175F003A4C58325F0C583730202D976
:1002C4000202DE0202E30202E80202ED0202F2028C
:1002D40002F70202FBA2CC020379A296020379A2DE
:1002E40093020379A291020379A2B2020379A2B420
:1002F400020379A2A4807EA283807AED0414B40858
:1003040000507590031575F003A4C58325F0C583CB
:100314007302032D02033102033502033902033D44
:10032400020341020345020349A2828048A280805D
:1003340044A2A78040A281803CA2A68038A2A580C6
:1003440034A2B58030A2B3802CED0424FE601414D2
:10035400601514601614601714601824057019A22F
:10036400CD8012A297800EA295800AA2948006A244
:10037400928002A290E433FEBE01047F0080027FDB
:010384000177
:010385002255
:0908050004580000000001570036
:1009F800E4F52DE4FDAF2D12072D052DE52DC3944B
:030A08000240F0B9
:010A0B0022C8
:10072D00EF146028047053ED14600C24FE600C244B
:10073D00037047C2A18023D2A1802874582FF8E6F8
:10074D006005C2A1E4F622D2A1760122ED1460115A
:10075D0024FE601624037022C2A074582FF8E4F60C
:10076D0022D2A074582FF876012274582FF8E66023
:0B077D0005C2A0E4F622D2A076012203
:1007880090000512011C24FE6023047044900006AA
:1007980012011C24FE600B14600D24027033E4FD6A
:1007A80080087D01E480037D03E4FF80219000063A
:1007B80012011C24FE600D14601024027013E4FD65
:1007C8007F01800A7D017F0180047D037F0112077C
:0207D8002D22D0
:0C0A0C00EFC3940250057D0312072D2259
:10087100E559B401047F0280027F01EF25E025E004
:10088100FFE558B401047E0280027E01EF4EFFE5D0
:100891005AB401047E0280027E01EEC454F04FFF7F
:1008A100E55BB401047E0280027E01EEC433335461
:0508B100C04FF55722C5
:1008260000000000000000000000000000000000C2
:1008360000000000000000000000000000000000B2
:1008460000000000000000000000000000000000A2
:100856000000000000000000000000000000000092
:0B086600000000000000000000000087
:0F080E000A4C000000000000000000000156002E
:1009B30075A240759850438E05538EF775D7C07551
:0A09C300D6FD438E10D2ACD2AF2255
:030023000203864F
:10038600C0E0C0F0C083C082C0D075D000C000C03D
:1003960001C002C003C004C005C006C0073098777C
:1003A600C298AF560556744C2FF8A699E54C64AD25
:1003B6007053E54D64DA7044E54E2404FFE433FEE1
:1003C600E556B50720E4B5061CFB7A00794CAD5618
:1003D6001204387E007F0A7D007B007A00794C1279
:1003E6000149755600E54E2404FFE433FED3E55675
:1003F6009FEE6480F8748098401D8009E556D3947A
:1004060001401480007E007F0A7D007B007A00791F
:100416004C120149755600D007D006D005D004D03D
:1004260003D002D001D000D0D0D082D083D0F0D07B
:02043600E032B2
:060933008B298A2A892BA2
:10093900E4FFEFC39D5018AB29AA2AA92B8F827512
:0F094900830012011CF5993099FDC2990F80E3CC
:01095800227C
:100438008D0B8B088A09890AE50B24FCFFE9240344
:10044800F9E43AFA1208B6E50B7C0024FFF582ECD1
:1004580034FFF583AB08AA09A90A12011C6F70784A
:1004680090000312011C6537705190000412011CA2
:1004780024A0603E24407060755C01755DF4120133
:1004880075120871AB08AA09A90A90000412011C88
:10049800FF12056D7E007F027D007B007A007939AE
:1004A8001201497E007F087D007B007A00794402B2
:1004B8000149AB08AA09A90A020959AB08AA09A95E
:1004C8000A90000312011CFFB4FF0D9000041201F2
:0904D8001CFDB4F00312065722CA
:040657008F0C8D0D6A
:10065B00780E7C007D007BFF7A0879267E007F0F69
:10066B001200F6781D7C007D007BFF7A0879357EC1
:10067B00007F0A1200F6750EAD850E1D750FDA851B
:10068B000F1E75100385101F850C11851120850D0C
:10069B0012851221751302851322853714851423B5
:1006AB007510047B007A00791D7F071208B68F1531
:0B06BB007B007A00790E7D08020933F5
:100959008B0C8A0D890E90000512011CD39402504C
:1009690013120788AB0CAA0DA90E90000512011CE1
:05097900FF1206C6227A
:0206C6008F0F94
:1006C80078107C007D007BFF7A08793F7E007F0FE1
:1006D8001200F6781F7C007D007BFF7A08794E7E39
:1006E800007F0A1200F67510AD85101F7511DA85A6
:1006F8001120751203851221853713851322850F62
:10070800148514237515028515247512037B007A48
:1007180000791F7F061208B68F167B007A007910C1
:050728007D070209330A
:02056D008F0CF1
:10056F00780D7C007D007BFF7A0879587E007F0F25
:10057F001200F6781C7C007D007BFF7A0879677E7D
:10058F00007F0A1200F6750DAD850D1C750EDA850C
:10059F000E1D750F03850F1E85371085101F850CD7
:1005AF0011851120751202851221853A13851322A8
:1005BF00853914851423855715851524750F067BEA
:1005CF00007A00791C7F091208B68F167B007A001B
:0705DF00790D7D0A020933CA
:0808B6008F298B2A8A2B892C63
:1008BE00E4FFFDEFC395295031AB2AAA2BA92C8F4B
:1008CE008275830012011CFCE4FEED6C20E006ED47
:1008DE00C313FD800A630518EDC313FD430580ECB9
:0C08EE00C313FC0EBE08E30F80C9AF0569
:0108FA0022DB
:08081D00025E0000025C000015
:1009E300538EBF53890FE4F58B758DB8C28FD2AB8D
:0509F300D2AFD28E22FC
:10000300E55D455C600C753801E55D155D700615B1
:060013005C22E4F5382236
:0B0A18008E5E8F5FE55F455E70FA2286
:03001B000209CD0A
:1009CD00C0E0120003E55F455E6008E55F155F70EE
:0609DD0002155ED0E032BD
:04001E0075C13E2248
:040A230075C13E2239
:030000000204E116
:0C04E100787FE4F6D8FD75815F020528E5
:10002600E709F608DFFA8046E709F208DFFA803EBC
:1000360088828C83E709F0A3DFFA8032E309F608A9
:10004600DFFA8078E309F208DFFA807088828C8311
:10005600E309F0A3DFFA806489828A83E0A3F608C5
:10006600DFFA805889828A83E0A3F208DFFA804C9F
:1000760080D280FA80C680D4806980F28033801076
:1000860080A680EA809A80A880DA80E280CA8033DF
:1000960089828A83ECFAE493A3C8C582C8CCC58357
:1000A600CCF0A3C8C582C8CCC583CCDFE9DEE78027
:1000B6000D89828A83E493A3F608DFF9ECFAA9F0A6
:1000C600EDFB2289828A83ECFAE0A3C8C582C8CCFC
:1000D600C583CCF0A3C8C582C8CCC583CCDFEADE15
:1000E600E880DB89828A83E493A3F208DFF980CC77
:1000F60088F0EF60010E4E60C388F0ED2402B40470
:100106000050B9F582EB2402B4040050AF23234516
:06011600822390007673C5
:10011C00BB010CE58229F582E5833AF583E0225098
:10012C0006E92582F8E622BBFE06E92582F8E222E2
:0D013C00E58229F582E5833AF583E49322FC
:10014900EF4E6012EF60010EEDBB010B89828A83CD
:10015900F0A3DFFCDEFA2289F05007F709DFFCA9DA
:0C016900F022BBFEFCF309DFFCA9F02231
:1004ED00020999E493A3F8E493A34003F68001F283
:1004FD0008DFF48029E493A3F85407240CC8C33310
:10050D00C4540F4420C8834004F456800146F6DFDE
:10051D00E4800B01020408102040809007DAE47E8D
:10052D00019360BCA3FF543F30E509541FFEE493D3
:10053D00A360010ECF54C025E060A840B8E493A39A
:10054D00FAE493A3F8E493A3C8C582C8CAC583CAC5
:10055D00F0A3C8C582C8CAC583CADFE9DEE780BE7D
:0108250000D2
:00000001FF
