:1009B60012097E1209E61209FB12001E12099B1289
:0A09C60005DE1208FB120A2680F27B
:10081F00082F0000000000000000083B000000004F
:10082F000000000002390000084400000000000032
:0B083F000000013800013700014300F9
:1008FB00E4F543AD437F03120294EF6011AF4374F1
:10090B0001A807088002C333D8FC42378010AF43DD
:10091B007401A807088002C333D8FCF4523705438F
:08092B00E543C3940640CC2211
:10099B00E4F543AD437F02120294742F2543F8A66E
:0B09AB00070543E543C3940840E92220
:1005DE00E4F52DF52EF5431202908F2D7F027E004D
:1005EE00120A1B1202908F2EE52D652E7049E538EA
:1005FE00702A743B2543F8E6652E6014742F25434C
:10060E00F8E6600CAF43120A0F7F147E00120A1B2D
:10061E00120290743B2543F8A607801B743B2543BA
:10062E00F8E6652D601174442543F8E670097601ED
:10063E00743B2543F8A62E0543E543C39408409723
:01064E002289
:10017500E530B401047F0180027F00EF333333544F
:10018500F8FFE52FB401047E0180027E00EE25E034
:100195004FFFE531B401047E0180027E00EEC433D9
:1001A50054E04FFFE532B401047E0180027E00EE8B
:1001B500C433333354804F4239E534B401047F01ED
:1001C50080027F00EF33333354F8FFE533B4010485
:1001D5007E0180027E00EE25E04FFFE535B4010487
:1001E5007E0180027E00EEC43354E04FFFE536B455
:1001F50001047E0180027E00EEC433333354804F08
:10020500423AE53CB401047F0180027F00EF25E01E
:1002150025E0FFE53BB401047E0180027E00EF4E40
:10022500FFE53DB401047E0180027E00EEC454F07A
:100235004FFFE53EB401047E0180027E00EEC4332B
:100245003354C04F4239E540B401047F0180027F39
:1002550000EF25E025E0FFE53FB401047E018002C3
:100265007E00EF4EFFE541B401047E0180027E0071
:10027500EEC454F04FFFE542B401047E0180027ED6
:0B02850000EEC4333354C04F423A2255
:04029000AD437F01FA
:10029400E4FEEF24FE606414700302034D24026044
:1002A4000302037CED0414B40800400302037C90B1
:1002B40002C175F003A4C58325F0C583730202D976
:1002C4000202DE0202E30202E80202ED0202F2028C
:1002D40002F70202FBA297020379A295020379A214
:1002E40093020379A291020379A280020379A28185
:1002F400020379A282807EA283807AED0414B4087A
:1003040000507590031575F003A4C58325F0C583CB
:100314007302032D02033102033502033902033D44
:10032400020341020345020349A2A78048A2A68012
:1003340044A2A58040A2A4803CA2A38038A2A280AB
:1003440034A2A18030A2A0802CED0424FE601414F9
:10035400601514601614601714601824057019A22F
:10036400CD8012A2CC800EA296800AA2948006A20E
:10037400928002A290E433FEBE01047F0080027FDB
:010384000177
:010385002255
:09084A00045800000000015700F1
:1009FB00E4F52DE4FDAF2D120725052DE52DC39450
:030A0B000240F0B6
:010A0E0022C5
:10072500EF146028047053ED14600C24FE600C2453
:10073500037047C2B48023D2B4802874582FF8E6DA
:100745006005C2B4E4F622D2B4760122ED1460113C
:1007550024FE601624037022C2B574582FF8E4F6FF
:1007650022D2B574582FF876012274582FF8E66016
:0B07750005C2B5E4F622D2B5760122E1
:1007800090000512011C24FE6023047044900006B2
:1007900012011C24FE600B14600D24027033E4FD72
:1007A00080087D01E480037D03E4FF802190000642
:1007B00012011C24FE600D14601024027013E4FD6D
:1007C0007F01800A7D017F0180047D037F01120784
:0207D0002522E0
:0C0A0F00EFC3940250057D03120725225E
:1008B600E559B401047F0280027F01EF25E025E0BF
:1008C600FFE558B401047E0280027E01EF4EFFE58B
:1008D6005AB401047E0280027E01EEC454F04FFF3A
:1008E600E55BB401047E0280027E01EEC43333541C
:0508F600C04FF5572280
:10086B00000000000000000000000000000000007D
:10087B00000000000000000000000000000000006D
:10088B00000000000000000000000000000000005D
:10089B00000000000000000000000000000000004D
:0B08AB00000000000000000000000042
:0F0853000A4C00000000000000000000015600E9
:10097E0053A23F75A240759850438E05538EF7755E
:0D098E00D7C075D6FD438E10D2ACD2AF227B
:030023000203864F
:10038600C0E0C0F0C083C082C0D075D000C000C03D
:1003960001C002C003C004C005C006C0073098777C
:1003A600C298AF560556744C2FF8A699E54C64AD25
:1003B6007053E54D64DA7044E54E2404FFE433FEE1
:1003C600E556B50720E4B5061CFB7A00794CAD5618
:1003D6001204387E007F0A7D007B007A00794C1279
:1003E6000149755600E54E2404FFE433FED3E55675
:1003F6009FEE6480F8748098401D8009E556D3947A
:1004060001401480007E007F0A7D007B007A00791F
:100416004C120149755600D007D006D005D004D03D
:1004260003D002D001D000D0D0D082D083D0F0D07B
:02043600E032B2
:060933008B298A2A892BA2
:10093900E4FFEFC39D5018AB29AA2AA92B8F827512
:0F094900830012011CF5993099FDC2990F80E3CC
:01095800227C
:100438008D0B8B088A09890AE50B14FF1207D2E590
:100448000B7C0024FFF582EC34FFF583AB08AA0986
:10045800A90A12011C6F707890000312011C6537FD
:10046800705190000412011C24A0603E244070606A
:10047800755C01755DF41201751208B6AB08AA091E
:10048800A90A90000412011CFF1205657E007F0274
:100498007D007B007A0079391201497E007F087D52
:1004A800007B007A007944020149AB08AA09A90A2D
:1004B800020959AB08AA09A90A90000312011CFFF6
:1004C800B4FF0D90000412011CFDB4F00312064F96
:0104D8002201
:04064F008F0C8D0D72
:10065300780E7C007D007BFF7A08796B7E007F0F2C
:100663001200F6781D7C007D007BFF7A08797A7E84
:10067300007F0A1200F6750EAD850E1D750FDA8523
:100683000F1E75100385101F850C11851120850D14
:1006930012851221751302851322853714851423BD
:1006A3007510047B007A00791D7F071207D28F151E
:0B06B3007B007A00790E7D08020933FD
:100959008B0C8A0D890E90000512011CD39402504C
:1009690013120780AB0CAA0DA90E90000512011CE9
:05097900FF1206BE2282
:0206BE008F0F9C
:1006C00078107C007D007BFF7A0879847E007F0FA4
:1006D0001200F6781F7C007D007BFF7A0879937EFC
:1006E000007F0A1200F67510AD85101F7511DA85AE
:1006F0001120751203851221853713851322850F6A
:10070000148514237515028515247512037B007A50
:1007100000791F7F061207D28F167B007A007910AE
:050720007D0702093312
:020565008F0CF9
:10056700780D7C007D007BFF7A08799D7E007F0FE8
:100577001200F6781C7C007D007BFF7A0879AC7E40
:10058700007F0A1200F6750DAD850D1C750EDA8514
:100597000E1D750F03850F1E85371085101F850CDF
:1005A70011851120751202851221853A13851322B0
:1005B700853914851423855715851524750F067BF2
:1005C700007A00791C7F091207D28F167B007A0008
:0705D700790D7D0A020933D2
:0807D2008F298B2A8A2B892C48
:1007DA00E4FFFDE52924FDFBEFC39B5035EFF582CD
:1007EA00758300A3A3A3AB2AAA2BA92C12011CFC74
:1007FA00E4FEED6C20E006EDC313FD800A630518E4
:10080A00EDC313FD430580ECC313FC0EBE08E30FD2
:04081A0080C1AF05E5
:01081E0022B7
:08086200025E0000025C0000D0
:1009E600538EBF53890FE4F58B758DB8C28FD2AB8A
:0509F600D2AFD28E22F9
:10000300E55D455C600C753801E55D155D700615B1
:060013005C22E4F5382236
:0B0A1B008E5E8F5FE55F455E70FA2283
:03001B000209D007
:1009D000C0E0120003E55F455E6008E55F155F70EB
:0609E00002155ED0E032BA
:04001E0075C13E2248
:040A260075C13E2236
:030000000204D91E
:0C04D900787FE4F6D8FD75815F020520F5
:10002600E709F608DFFA8046E709F208DFFA803EBC
:1000360088828C83E709F0A3DFFA8032E309F608A9
:10004600DFFA8078E309F208DFFA807088828C8311
:10005600E309F0A3DFFA806489828A83E0A3F608C5
:10006600DFFA805889828A83E0A3F208DFFA804C9F
:1000760080D280FA80C680D4806980F28033801076
:1000860080A680EA809A80A880DA80E280CA8033DF
:1000960089828A83ECFAE493A3C8C582C8CCC58357
:1000A600CCF0A3C8C582C8CCC583CCDFE9DEE78027
:1000B6000D89828A83E493A3F608DFF9ECFAA9F0A6
:1000C600EDFB2289828A83ECFAE0A3C8C582C8CCFC
:1000D600C583CCF0A3C8C582C8CCC583CCDFEADE15
:1000E600E880DB89828A83E493A3F208DFF980CC77
:1000F60088F0EF60010E4E60C388F0ED2402B40470
:100106000050B9F582EB2402B4040050AF23234516
:06011600822390007673C5
:10011C00BB010CE58229F582E5833AF583E0225098
:10012C0006E92582F8E622BBFE06E92582F8E222E2
:0D013C00E58229F582E5833AF583E49322FC
:10014900EF4E6012EF60010EEDBB010B89828A83CD
:10015900F0A3DFFCDEFA2289F05007F709DFFCA9DA
:0C016900F022BBFEFCF309DFFCA9F02231
:1004E5000209B6E493A3F8E493A34003F68001F26E
:1004F50008DFF48029E493A3F85407240CC8C33318
:10050500C4540F4420C8834004F456800146F6DFE6
:10051500E4800B010204081020408090081FE47E4F
:10052500019360BCA3FF543F30E509541FFEE493DB
:10053500A360010ECF54C025E060A840B8E493A3A2
:10054500FAE493A3F8E493A3C8C582C8CAC583CACD
:10055500F0A3C8C582C8CAC583CADFE9DEE780BE85
:01086A00008D
:00000001FF
